:020000040800F2
:1000000000000524412A00082D1D00082F1D0008AE
:10001000311D0008331D0008351D000800000000D8
:10002000000000000000000000000000712E000829
:10003000371D000800000000112F0008972A000853
:10004000952A0008952A0008952A0008952A000894
:10005000952A0008952A0008952A0008952A000884
:10006000952A0008952A0008952A0008391D0008DD
:10007000491D0008591D0008691D0008952A00083F
:10008000952A0008952A0008952A0008791D00087D
:10009000891D0008991D0008A91D0008952A00085F
:1000A000952A0008952A0008952A0008952A000834
:1000B000B91D0008952A0008952A0008952A00080D
:1000C000952A0008952A0008952A0008952A000814
:1000D000952A0008C91D0008952A0008952A0008DD
:1000E000D91D0008952A000800000000952A000884
:1000F000952A0008952A0008952A0008952A0008E4
:10010000952A0008952A0008952A0008952A0008D3
:10011000952A0008952A0008952A0008952A0008C3
:10012000952A0008952A0008952A0008952A0008B3
:10013000952A0008952A0008952A0008952A0008A3
:1001400000000000000000000000000000000000AF
:10015000952A0008952A0008952A0008952A000883
:10016000952A0008952A0008952A0008952A000873
:10017000952A0008ED1D0008952A000800000000DF
:10018000952A0008952A0008FD1D0008952A0008F8
:10019000952A0008952A0008952A0008952A000843
:1001A000952A0008952A0008952A000800000000FA
:1001B000952A0008952A0008952A0008952A000823
:1001C000952A0008952A00080000000000000000A1
:1001D0000000000000000000952A00080000000058
:1001E000000000000000000000000000000000000F
:1001F0000000000000000000952A0008952A000871
:10020000952A0008952A000800000000952A000899
:10021000952A0008952A0008952A0008952A0008C2
:10022000952A000800000000952A00080000000040
:10023000952A0008952A000800000000952A000869
:10024000952A0008952A0008952A0008952A000892
:10025000952A0008952A0008952A0008952A000882
:10026000952A0008952A0008952A0008952A000872
:10027000952A0008952A0008952A00080000000029
:10028000952A0008952A0008952A0008952A000852
:1002900000000000952A0008952A000800000000D0
:1002A00000000000952A0008952A0008952A0008F9
:1002B000952A0008952A0008952A00080D1E0008B6
:0C02C0001D1E0008952A0008952A000861
:1002D0000348044B834202D0034B03B118477047D5
:1002E000A4010024A40100240000000005480649E0
:1002F0000B1AD90F01EBA301491002D0034B03B134
:1003000018477047A4010024A40100240000000045
:1003100010B5064C237843B9FFF7DAFF044B13B14D
:100320000448AFF300800123237010BDA401002412
:100330000000000014D1000808B5044B1BB10449AB
:100340000448AFF30080BDE80840CFE7000000009C
:10035000A801002414D1000853B94AB9002908BFE4
:1003600000281CBF4FF0FF314FF0FF3000F074B990
:10037000ADF1080C6DE904CE00F006F8DDF804E0FC
:10038000DDE9022304B070472DE9F047089D0446DB
:100390008E46002B4DD18A42944669D9B2FA82F238
:1003A00052B101FA02F3C2F1200120FA01F10CFA74
:1003B00002FC41EA030E94404FEA1C48210CBEFBAC
:1003C000F8F61FFA8CF708FB16E341EA034306FB35
:1003D00007F199420AD91CEB030306F1FF3080F0C4
:1003E0001F81994240F21C81023E63445B1AA4B211
:1003F000B3FBF8F008FB103344EA034400FB07F7B3
:10040000A7420AD91CEB040400F1FF3380F00A81F3
:10041000A74240F207816444023840EA0640E41BE8
:1004200000261DB1D4400023C5E900433146BDE894
:10043000F0878B4209D9002D00F0EF800026C5E936
:10044000000130463146BDE8F087B3FA83F6002E4E
:100450004AD18B4202D3824200F2F980841A61EBC6
:10046000030301209E46002DE0D0C5E9004EDDE7E4
:1004700002B9FFDEB2FA82F2002A40F09280A1EBCC
:100480000C014FEA1C471FFA8CFE0126200CB1FB21
:10049000F7F307FB131140EA01410EFB03F088421A
:1004A00008D91CEB010103F1FF3802D2884200F2A7
:1004B000CB804346091AA4B2B1FBF7F007FB101139
:1004C00044EA01440EFB00FEA64508D91CEB0404D7
:1004D00000F1FF3102D2A64500F2BB800846A4EB32
:1004E0000E0440EA03409CE7C6F12007B34022FA1D
:1004F00007FC4CEA030C20FA07F401FA06F31C434C
:10050000F9404FEA1C4900FA06F3B1FBF9F8200C58
:100510001FFA8CFE09FB181140EA014108FB0EF09E
:10052000884202FA06F20BD91CEB010108F1FF3AEE
:1005300080F08880884240F28580A8F102086144FA
:10054000091AA4B2B1FBF9F009FB101144EA014108
:1005500000FB0EFE8E4508D91CEB010100F1FF34B3
:100560006CD28E456AD90238614440EA0840A0FB4B
:100570000294A1EB0E01A142C846A64656D353D021
:100580005DB1B3EB080261EB0E0101FA07F722FA45
:1005900006F3F1401F43C5E9007100263146BDE86E
:1005A000F087C2F12003D8400CFA02FC21FA03F3D1
:1005B000914001434FEA1C471FFA8CFEB3FBF7F052
:1005C00007FB10360B0C43EA064300FB0EF69E4277
:1005D00004FA02F408D91CEB030300F1FF382FD210
:1005E0009E422DD9023863449B1B89B2B3FBF7F6B8
:1005F00007FB163341EA034106FB0EF38B4208D991
:100600001CEB010106F1FF3816D28B4214D9023ED1
:100610006144C91A46EA004638E72E46284605E7EF
:100620000646E3E61846F8E64B45A9D2B9EB0208C0
:1006300064EB0C0E0138A3E74646EAE7204694E750
:100640004046D1E7D0467BE7023B614432E7304683
:1006500009E76444023842E7704700BF014B18685D
:10066000704700BF0000002470B50D4E0D4D761B85
:10067000B61006D0002455F8043B01349847A64232
:10068000F9D1094E094D761B0CF044FDB61006D089
:10069000002455F8043B01349847A642F9D170BDB7
:1006A00054D3000854D3000858D3000854D300088A
:1006B000844641EA000313F003036DD1403A41D36D
:1006C00051F8043B40F8043B51F8043B40F8043B2C
:1006D00051F8043B40F8043B51F8043B40F8043B1C
:1006E00051F8043B40F8043B51F8043B40F8043B0C
:1006F00051F8043B40F8043B51F8043B40F8043BFC
:1007000051F8043B40F8043B51F8043B40F8043BEB
:1007100051F8043B40F8043B51F8043B40F8043BDB
:1007200051F8043B40F8043B51F8043B40F8043BCB
:1007300051F8043B40F8043B51F8043B40F8043BBB
:10074000403ABDD2303211D351F8043B40F8043B5B
:1007500051F8043B40F8043B51F8043B40F8043B9B
:1007600051F8043B40F8043B103AEDD20C3205D36B
:1007700051F8043B40F8043B043AF9D2043208D063
:10078000D2071CBF11F8013B00F8013B01D30B88D5
:1007900003806046704700BF082A13D38B078DD0B3
:1007A00010F003038AD0C3F10403D21ADB071CBF85
:1007B00011F8013B00F8013B80D331F8023B20F8EF
:1007C000023B7BE7043AD9D3013A11F8013B00F828
:1007D000013BF9D20B7803704B7843708B788370B0
:1007E00060467047830730B548D0541E002A3FD07A
:1007F000CAB2034601E0013C3AD303F8012B9D073E
:10080000F9D1032C2DD9CDB245EA05250F2C45EAA7
:10081000054536D9A4F1100222F00F0C03F1200E89
:10082000E6444FEA121C03F1100242E9045542E982
:10083000025510327245F8D10CF1010214F00C0F80
:1008400003EB021204F00F0C13D0ACF1040323F0FD
:1008500003030433134442F8045B9342FBD10CF0CE
:1008600003042CB1CAB21C4403F8012B9C42FBD1F7
:1008700030BD64461346002CF4D1F9E70346144614
:10088000BFE71A46A446E0E7002958D030B551F832
:10089000043C83B0002BA1F10404B8BFE41801901C
:1008A00000F044F9284A0198136833B1A3420DD9E6
:1008B000216804EB010C63452FD06360146003B022
:1008C000BDE8304000F034B9A34210D81A465B6846
:1008D000002BF9D1116802EB010C644519D02FD31C
:1008E0006360546003B0BDE8304000F021B9116886
:1008F00002EB010CA44516D022D8216804EB010CB0
:100900006345EDD11D685B682944C4E90013546058
:10091000D5E7236819441160D1E71D685B68294455
:10092000C4E90013CAE7246821445418A3421160A3
:10093000C5D1D3E900432144C2E90013BFE77047A2
:100940000C230360BBE700BFC0010024F8B5CD1C39
:1009500025F0030508350C2D38BF0C25002D064663
:1009600023DBA94221D8254F00F0E0F83A6822B3F2
:10097000144603E063682246FBB11C4623685B1BF8
:10098000F8D40B2B15D8636894420CBF3B605360BE
:10099000304600F0CDF804F10B00231D20F00700D5
:1009A000C21A01D01B1AA350F8BD0C2333600020DB
:1009B000F8BD23601C442560EAE77968C9B129467F
:1009C000304600F01DF8431C0CD0C41C24F0030476
:1009D000A04205D0211A304600F012F8013001D0B3
:1009E0002560D5E70C233046336000F0A1F80020E5
:1009F000F8BD304600F004F87860E0E7C00100245C
:100A000038B5074D0022044608462A6001F00EFA68
:100A1000431C00D038BD2B68002BFBD0236038BDB1
:100A2000C801002408B410B5002A9DB0044633DB89
:100A30004FF40273ADF814300291069120AB17D039
:100A4000013A4FF6FF7104920792ADF816101F9A03
:100A5000019302A900F04CF9421C01DA8B232360B8
:100A6000029B00221A701DB0BDE8104001B0704713
:100A70004FF6FF7104920792ADF816101F9A01937A
:100A800002A900F035F9431C01DA8B2323601DB065
:100A9000BDE8104001B070478B2303604FF0FF307A
:100AA000F5E700BF0CB410B51F4B00291C689CB0C3
:100AB00035DB4FF40273ADF81430029006901FAB93
:100AC00018D001394FF6FF7204910791ADF8162046
:100AD00002A91E9A0193204600F00AF9421C01DA8D
:100AE0008B232360029B00221A701CB0BDE81040CB
:100AF00002B070474FF6FF7204910791ADF81620CF
:100B000002A91E9A0193204600F0F2F8431C01DA74
:100B10008B2323601CB0BDE8104002B070478B23CC
:100B200023604FF0FF30F5E700000024704700BF5E
:100B3000704700BF2DE9F0478F689F420C461D4665
:100B4000164638D88246888910F4906F0ED108680E
:100B50003D462A46314600F023FCA2682368D21B9A
:100B60002B44A26023600020BDE8F0874B6909692F
:100B700003EB4308236808EBD878A3EB01096B1C4F
:100B80004FEA68084B444345424684BF9846424674
:100B9000430513D511465046FFF7D8FE074608B364
:100BA00021694A46FFF784FDA38923F4906343F04B
:100BB0008003A38107E008681F46CAE7504600F09B
:100BC0006BFC074650B107EB0900A8EB090327614E
:100BD000C4F81480A36020602F46BAE7216950460C
:100BE000FFF752FE0C23CAF80030A38943F04003FC
:100BF0004FF0FF30A381B7E72DE9F04F936883B042
:100C00009146002B6ED017688D6880460C460868A8
:100C1000083744E0A38913F4906F2ED0D4E904156B
:100C2000A0EB010A05EB450505EBD5750AEB0600BF
:100C30006D100130A8422A4684BF05462A465B054E
:100C400037D511464046FFF781FE00283BD052467B
:100C500021690190FFF72CFDA289019B22F490628B
:100C600042F08002A281A5EB0A0203EB0A00656153
:100C7000A260236120603546B2465946524600F0D4
:100C80008FFBA068D9F808102368451B8E1B03EB67
:100C90000A00A5602060C9F808601EB3083757E94C
:100CA00002B6002EFAD0B542AA46B3D93546B246AE
:100CB000E3E7404600F0F0FB03460028D3D121696A
:100CC0004046FFF7E1FD0C23C8F80030A38900225D
:100CD00043F040034FF0FF30A381C9E9012203B084
:100CE000BDE8F08F0020C9F8040003B0BDE8F08F24
:100CF0002DE9F04F92468A8915069DB088468146B7
:100D00001C4603D50A69002A00F0EF8000220992F0
:100D10009AF800307E4D039420228DF8292030224D
:100D20008DF82A200126002B72D0544603E014F8D7
:100D3000013F002B76D0252BF9D1B4EB0A0B74D1EF
:100D40002278002A64D000234FF0FF32CDE905233A
:100D5000049307938DF853301A93013404E0049AF6
:100D600006FA03F313430493A246052214F8011B69
:100D7000284600F0C5FA431B0028F0D1049BD80692
:100D800044BF20228DF8532019079AF8001044BF61
:100D90002B228DF853202A2954D1039A116804324A
:100DA000002903927CDB07919AF801100AF1010AED
:100DB0002E2959D0574C0322204600F0A1FA40B109
:100DC000049B001B402404FA00F0034304930AF13F
:100DD000010A1AF8011B50488DF82810062200F06D
:100DE0008FFA002862D04D4B002B52D003AA0092FC
:100DF0004B4B424604A94846AFF3008007467A1C95
:100E000006D0099B3B4409939AF80030002B8CD103
:100E1000B8F80C305B0654BF09984FF0FF301DB096
:100E2000BDE8F08FB4EB0A0BF2D05B465246414668
:100E30004846FFF77FFE0130EAD0099B22785B44E9
:100E400009937EE7A1F13002092AB1D8079B1AF86D
:100E5000011F03EB830302EB4303A1F13002092AD4
:100E6000F5D92E290793A5D19AF801102A2927D15F
:100E7000039B9AF802101A6805920433002A0AF1BB
:100E800002000393B8BF4FF0FF338246B8BF05930B
:100E900090E7039B073323F0070308330393B0E77E
:100EA000494243F00203079104937DE703AA0092AD
:100EB0001B4B424604A9484600F0CAF807469EE785
:100EC000A1F130020023092A05930AF1010A3FF635
:100ED00071AF1AF8011F03EB830302EB4303A1F187
:100EE0003002092AF5D9059364E74021FFF72EFD6A
:100EF000C8F80000C8F8100018B14022C8F8142043
:100F000004E70C23C9F800304FF0FF3087E700BF3B
:100F100010D3000818D300081CD3000800000000FC
:100F2000350B00082DE9F84F92461F460A698B6879
:100F3000DDF828909A42B8BF1A46CAF8002091F806
:100F400043300C46064613B10132CAF8002022682D
:100F500091065DD5DAF800300233CAF80030226815
:100F600012F0060F11461ED1E168CB1A002BD8BF34
:100F7000114618DD04F1190B4FF0000805E0E56893
:100F8000DAF80030ED1A45450CDD01235A463946A2
:100F90003046C847013008F10108F0D14FF0FF306A
:100FA000BDE8F88F216894F84330003B18BF012357
:100FB0008A060AD5E1185A1C302081F843002244E1
:100FC00094F8451082F84310023304F14302394685
:100FD0003046C8470130E1D0236803F00603042BF4
:100FE0001DD0A3682269934225DD4FF000089B1AAB
:100FF00098441A34002501E045451CDA01232246B5
:1010000039463046C847013005F10105F4D1C5E73E
:1010100012F0060F12D0003B18BF0123D5E7DAF813
:101020000030E1682269C91AA368934221EAE17895
:10103000DDDC0029DDDC0020BDE8F88FE168DAF8AE
:101040000030CB1A002BD8BF114693DCABE700BFB2
:101050002DE9F0470C4684B09046227E0C99074655
:10106000994604F14300002A33D0A2F15803DDB2BF
:10107000202D67D8202B65D8DFE813F0DE00640050
:101080006400640064006400640064006400640040
:101090006400A3006E0064006400640064006E00DD
:1010A000640064006400640021007F00C0006400EC
:1010B0006400AE0064007F0064006400E500236803
:1010C0001A0640F104810B6862691D1D0D601B68E2
:1010D0001A60002382462361CDF80090434603AA9C
:1010E00021463846FFF71EFF013020D023695246C3
:1010F00041463846C847013019D02368E068039E4E
:101100009B0719D5831B002B16DD04F1190A002556
:1011100004E0E068039E831BAB420DDD01235246D1
:1011200041463846C847013005F10105F1D14FF07D
:10113000FF3004B0BDE8F087B042B8BF304604B01D
:10114000BDE8F087012384F84220236104F1420ABC
:10115000002384F84330BFE723681A0602D45E06F2
:1011600000F1C1800D682A6804350D601546002A1B
:101170006BDBDFF884C10A2610E023681D0640F10E
:101180009C800B681D1D0D601D68DFF86CC16F2A07
:101190000CBF08260A26002384F843306268A26048
:1011A000002A7FDB236823F004032360002D5BD13A
:1011B000002A79D18246082E65D0A0EB0A00206172
:1011C0008AE70B680122186804330B6004F1420AB5
:1011D00084F842002261BBE70B686268181D086052
:1011E000D3F800A00021504600F08AF8002800F053
:1011F0008180A0EB0A0060602061A9E7236843F0CA
:10120000200323607822DFF8F4C084F845200A68C0
:10121000151D0D601D0643D4590641D51588DE07FE
:1012200044BF43F020032360002D44D1236823F002
:10123000200323601026AEE7582384F84530DFF8FA
:10124000B8C02368E3E72368DCE76268A2602D2169
:10125000002AC5F1000584F8431002DB23F00403E3
:101260002360DFF894C00A268246B5FBF6F306FB3E
:1012700013512A461CF801100AF8011DB2421D46FE
:10128000F3D2082E99D12368D90796D562682369CD
:101290009A4292DC30230AF8013C0AF1FF3A8CE7CB
:1012A0001568BCE7002DDFD19CF8003084F842308F
:1012B00004F1420A7FE710266DE713F0400F0B6838
:1012C00003F104050D600CBF1D681D885DE713F078
:1012D000400F0B68626903F104050D601B6814BFC1
:1012E0001A801A60F5E60A68B2F9005004320A6002
:1012F0002A463CE760687FE724D3000838D300081B
:1013000001F0FF01102A2BDB10F0070F08D010F8B6
:10131000013B013A8B422DD010F0070F42B3F6D1BA
:10132000F0B441EA012141EA014122F007047FF0D3
:1013300000070023F0E80256083C85EA010586EA2A
:10134000010685FA47F5A3FA87F586FA47F6A5FA66
:1013500087F68EB9EED1F0BC01F0FF0102F0070272
:1013600032B110F8013B013A83EA010313B1F8D11D
:101370000020704701387047002D06BF35460338FE
:10138000073815F0010F07D1013015F4807F02BF37
:10139000013015F4C03F0130F0BC0138704700BF88
:1013A00088420DD98B1883420AD900EB020CBAB1DE
:1013B000624613F801CD02F801CD9942F9D1704788
:1013C0000F2A0ED8034602F1FF3C4AB10CF1010C82
:1013D000013B8C4411F8012B03F8012F6145F9D131
:1013E000704740EA01039B0750D1A2F1100370B58A
:1013F00001F1200C23F00F0501F1100E00F1100493
:10140000AC441B095EF8105C44F8105C5EF80C5CA0
:1014100044F80C5C5EF8085C44F8085C5EF8045C18
:1014200044F8045C0EF1100EE64504F11004E9D115
:10143000013312F00C0F01EB031102F00F0400EB6B
:10144000031327D0043C24F003064FEA940C1E44F7
:101450001C1F8E465EF8045B44F8045FB442F9D169
:101460000CF1010402F0030203EB840301EB84019D
:1014700002F1FF3C4AB10CF1010C013B8C4411F824
:10148000012B03F8012F6145F9D170BD02F1FF3C3A
:1014900003469BE72246EBE7F8B51446F9B1CAB11B
:1014A00006460D4600F020F8A04202D32F463846EB
:1014B000F8BD21463046FFF749FA07460028F6D026
:1014C00022462946FFF7F4F830462946FFF7DCF9B3
:1014D0003846F8BD2746FFF7D7F93846F8BDBDE8CE
:1014E000F8401146FFF732BA51F8040C0028A0F179
:1014F0000400BCBF0B58C018704700BF00B583B0D4
:10150000174BD3F8D82042F00102C3F8D820D3F803
:10151000D83003F001030193019B002205210B2029
:1015200003F08AFD0B2003F0BDFD002205210C20F5
:1015300003F082FD0C2003F0B5FD002205210D20F3
:1015400003F07AFD0D2003F0ADFD002205210E20F1
:1015500003F072FD0E2003F0A5FD03B05DF804FB5F
:101560000044025810B51748174B036000218160F2
:10157000C1600123037441748374022343610F2209
:1015800082612C24C46102624362062383621122B9
:10159000C2620363416304238363C363082202645A
:1015A00043648264C364026543658265C265026602
:1015B0004166836604F0E6FF00B910BD00F01AFA38
:1015C000FBE700BFD001002400A0004008B5194887
:1015D000194B03604FF4407383600022C2600274B1
:1015E00042748274022343610E2181613723C361F7
:1015F000132303620323436205238362C1620363EF
:1016000040F25533436304238363C36308230364B5
:10161000122141648364C164036541658365C365C8
:1016200003664266816604F0ADFF00B908BD00F0B4
:10163000E1F9FBE77002002400A4004008B5184857
:10164000184B036000228260C2600274427482748C
:10165000022343610F2383612C21C16103620523AF
:101660004362062383621121C162036340F2AA63CD
:10167000436304238363C363082101644364816477
:10168000C364016543658165C16501664266836621
:1016900004F078FF00B908BD00F0ACF9FBE700BF2B
:1016A0001003002400D4004010B58CB00023079331
:1016B000089309930A930B930368614A934207D0F6
:1016C000604A934240D0604A93427BD00CB010BD38
:1016D0005E4A136801331360012B27D05C4BD3F8AB
:1016E000E02042F00802C3F8E020D3F8E03003F035
:1016F00008030293029B0323079302230893092301
:101700000B9307A9534805F027FA0022062113205E
:1017100003F092FC132003F0C5FC002206211520E3
:1017200003F08AFC152003F0BDFCCFE7484BD3F84B
:10173000EC2042F48072C3F8EC20D3F8EC3003F4D0
:1017400080730193019BC9E7404A1368013313601A
:10175000012B29D03E4BD3F8E02042F00202C3F81F
:10176000E020D3F8E03003F002030493049B6023ED
:1017700007930223089303230A9309230B9307A9D2
:10178000354805F0E9F900220521142003F054FC46
:10179000142003F087FC00220521162003F04CFCE6
:1017A000162003F07FFC91E7294BD3F8EC2042F49C
:1017B0008072C3F8EC20D3F8EC3003F48073039309
:1017C000039BC7E7214A136801331360012B28D01C
:1017D0001F4BD3F8E02042F00802C3F8E020D3F812
:1017E000E03003F008030693069B4FF44053079341
:1017F0000223089305240B9407A9164805F0ACF9B9
:10180000002221469F2003F017FC9F2003F04AFC92
:1018100000222146A02003F00FFCA02003F042FC90
:1018200054E70B4BD3F8EC2042F48072C3F8EC2061
:10183000D3F8EC3003F480730593059BC8E700BF31
:1018400000A0004000A4004000D40040CC010024CF
:1018500000440258000C02580004025808B500F079
:10186000A1FEFEE700B58BB00D4A00210D4801F046
:101870004DF90D4B18602422002101A8FEF7B2FF9C
:101880000A4B01934FF4005306931823079301AAC0
:101890000021074801F03AF90BB05DF804FB00BFE6
:1018A00090D100085D180008B003002478D100082A
:1018B000D1D0000870B58CB0002407940894099426
:1018C0000A940B943F4BD3F8E02042F01002C3F887
:1018D000E020D3F8E02002F010020192019AD3F840
:1018E000E02042F00402C3F8E020D3F8E02002F048
:1018F00004020292029AD3F8E02042F08002C3F878
:10190000E020D3F8E02002F080020392039AD3F89B
:10191000E02042F00202C3F8E020D3F8E02002F019
:1019200002020492049AD3F8E02042F00802C3F8BD
:10193000E020D3F8E02002F008020592059AD3F8DF
:10194000E02042F00102C3F8E020D3F8E03003F0D9
:1019500001030693069B1C4D012244F2090128460F
:1019600005F004FA4FF48043079301260896099680
:101970000A9407A9284605F0EFF80923079308966B
:10198000099403230A9307A9284605F0E5F84FF4C4
:10199000A05307934FF488130893099407A90B48A1
:1019A00005F0DAF821464FF0006003F029FB2246EB
:1019B0000621282003F040FB282003F073FB0CB025
:1019C00070BD00BF004402580008025800100258C1
:1019D0004FF0500383F31188BFF36F8FBFF34F8F26
:1019E000FEE708B50368B3F1804F00D008BD03F0EF
:1019F000E1FAFBE772B6FEE700B59DB04C2200218C
:101A000009A8FEF7EFFE2022002101A8FEF7EAFE5A
:101A1000022006F031F800230093214B9A6922F44A
:101A200040429A619B6903F440430093009B1C4B26
:101A30009B6913F4005FFAD0212309934FF480339C
:101A40000A9301220F9202231293139314932821D5
:101A500015911692179318930C23199300231A9338
:101A60001B9309A806F03AF8A8B93F230193032174
:101A700002910023039308230493402305930693C4
:101A80004FF480620792089301A806F017FC20B972
:101A90001DB05DF804FBFFF7ADFFFFF7ABFF00BF24
:101AA0000048025800B5AFB0B82200216846FEF7E2
:101AB00099FE4FF400420023CDE900230223029354
:101AC00014220392049305930693C02307934FF0C7
:101AD00000531B93684606F0B7FE10B92FB05DF8AF
:101AE00004FBFFF787FF08B503F036FAFFF784FF22
:101AF000FFF7D8FFFFF7DEFEFFF700FDFFF732FD2F
:101B0000FFF764FD00F0A4FA00F054FB00F086FB40
:101B100000F0B8FB00F00CF8FFF790FD00F006FBBA
:101B200000F0C6FFFFF79EFE00F0D4FFFEE70000C6
:101B300008B51548154B03604FF48003436000233C
:101B400083600722C2604FF0007202614FF0807222
:101B500042614FF0806282614FF08042C261036255
:101B600043628362C36242638363C3630364436407
:101B70008364C36403654365836507F07DFD00B935
:101B800008BDFFF737FFFBE7B4030024003800402F
:101B900070B5B8B004460021339134913591369137
:101BA0003791B82204A8FEF71DFE2268274B9A42FF
:101BB00001D038B070BD4FF480520023CDE904232A
:101BC00004A806F041FE00283DD1214BD3F8E820BF
:101BD00042F48042C3F8E820D3F8E82002F48042BF
:101BE0000192019AD3F8E02042F00402C3F8E02009
:101BF000D3F8E02002F004020292029AD3F8E02027
:101C000042F00202C3F8E020D3F8E03003F0020310
:101C10000393039B062333930226349600243594C2
:101C200036940525379533A90A4804F095FF4FF4FB
:101C300000533393349635943694379533A9064838
:101C400004F08AFFB5E7FFF7D5FEBEE70038004095
:101C500000440258000802580004025800B583B03E
:101C60000A4BD3F8F42042F00202C3F8F420D3F870
:101C7000F43003F002030193019B00220F216FF067
:101C8000010003F0D9F903B05DF804FB00440258E9
:101C90000F2801D90120704710B58AB004460022F0
:101CA00001461C2003F0C8F91C2003F0FBF91B4B74
:101CB0001C601B4BD3F8E82042F00102C3F8E82077
:101CC000D3F8E83003F001030093009B01A902A8B8
:101CD00006F084FC079BC3B906F05CFC0346114880
:101CE000A0FB03239B0C013B0F484FF08042026096
:101CF00040F2E732C260436000230361836008F072
:101D000073F830B101200AB010BD06F043FC430067
:101D1000E5E7054807F0C6FEF5E700BFDC00002454
:101D20000044025883DE1B433C040024FEE7FEE728
:101D3000FEE7FEE7FEE7704708B5024803F09CFFA8
:101D400008BD00BF9C05002408B5024803F094FFBD
:101D500008BD00BF1406002408B5024803F08CFF3C
:101D600008BD00BF2405002408B5024803F084FF25
:101D700008BD00BF8C06002408B5024804F05EFDD3
:101D800008BD00BFD001002408B5024804F056FD8C
:101D900008BD00BF7002002408B5024804F04EFDE3
:101DA00008BD00BFD001002408B5024804F046FD7C
:101DB00008BD00BF7002002408B5024807F0C6FE47
:101DC00008BD00BF3C04002408B5024808F04AFAE8
:101DD00008BD00BF0407002408B54FF4806004F07C
:101DE000CCFF4FF4805004F0C8FF08BD08B502488E
:101DF00005F003FB08BD00BFA41B002408B5024882
:101E000008F030FA08BD00BF2C08002408B50248CD
:101E100004F014FD08BD00BF1003002408B50248FB
:101E200004F00CFD08BD00BF1003002410B50346EC
:101E30000C4A0D490D48006840B10C480068034445
:101E4000521A934206D8094A136010BD0748084C3D
:101E50000460F2E7FEF702FC0C2303604FF0FF3052
:101E6000F3E700BF000005240004000088040024FC
:101E7000C88900242B4AD2F8883043F47003C2F892
:101E80008830294B1B6803F00F03062B06D8264A1F
:101E9000136823F00F0343F007031360234B1A6802
:101EA00042F001021A6000221A611968204A0A40B1
:101EB0001A601D4B1B6813F0080F06D01A4A1368EE
:101EC00023F00F0343F007031360184B00229A61BD
:101ED000DA611A62174999621749D9621749196379
:101EE0005A639963DA6319645A64196821F480218A
:101EF00019601A66D3F8D43013F4805F10D10B4BFD
:101F0000D3F8D42042F48052C3F8D4200C4A43F2D0
:101F1000D2011160D3F8D42022F48052C3F8D42027
:101F2000704700BF00ED00E000200052004402585E
:101F30007FEDF6EA000202020000FF0180020101CB
:101F400000400052054AD36843F00203D360034BBC
:101F50005B6813F4005FFAD0704700BF0048025876
:101F600082B00368114A934204D0114A93420FD0C1
:101F700002B070470F4BD3F8F02042F00102C3F8D3
:101F8000F020D3F8F03003F001030093009BEFE75B
:101F9000084BD3F8E82042F00202C3F8E820D3F857
:101FA000E83003F002030193019BE1E700000140E8
:101FB000000400400044025800B589B00023039398
:101FC000049305930693079303681C4A934205D034
:101FD0001B4A93421BD009B05DF804FB194BD3F8A0
:101FE000E02042F01002C3F8E020D3F8E03003F024
:101FF00010030193019B4FF40853039302230493AE
:102000000123079303A9104804F0A6FDE3E70D4B55
:10201000D3F8E02042F00202C3F8E020D3F8E03029
:1020200003F002030293029B02230393049307939A
:1020300003A9064804F090FDCDE700BF0000014071
:1020400000040040004402580010025800040258E6
:1020500010B598B000241594169417940E940F940C
:10206000109411941294139414943422214601A8CC
:10207000FEF7B8FB2B482C4B036040F2BF334360A4
:1020800084604FF6FF73C36004614461846107F0AC
:10209000DBFE002837D1002315931693179315A95B
:1020A000204807F0E9FF002830D160230E9300227A
:1020B0000F92109211921292139214920EA9194833
:1020C00007F03CFF28BB08220EA9164807F036FF90
:1020D00010BB0023019302930393049305934FF4E1
:1020E00000520692079309934FF000720A920B93E5
:1020F0000D9301A90B4808F017F880B90948FFF7BC
:102100005BFF18B010BDFFF775FCC4E7FFF772FC6A
:10211000CBE7FFF76FFCD6E7FFF76CFCD9E7FFF7DB
:1021200069FCEBE78C0400240000014000B58BB093
:102130000023079308930993009301930293039359
:102140000493059306931948194A026017224260C6
:10215000836042F20F72C26003618023836107F0E3
:1021600073FEC8B900230793099307A90F4807F026
:1021700083FFA0B96023009300230193029304938B
:102180000C226946094807F0D9FE58B90748FFF7FD
:1021900013FF0BB05DF804FBFFF72CFCE2E7FFF741
:1021A00029FCE7E7FFF726FCF0E700BFD80400248E
:1021B0000004004008B51748174B03604FF4E133A3
:1021C000436000238360C36003610C22426183612A
:1021D000C36103624362836208F0ABFE70B9002101
:1021E0000C4808F021FF60B900210A4808F041FFBF
:1021F00050B9084808F0F9FE48B908BDFFF7FAFBE6
:10220000EDE7FFF7F7FBEFE7FFF7F4FBF1E7FFF789
:10221000F1FBF2E72C0800240078004008B51748CD
:10222000174B03604FF4E133436000238360C360C6
:1022300003610C2242618361C36103624362836272
:1022400008F077FE70B900210C4808F0EDFE60B987
:1022500000210A4808F00DFF50B9084808F0C5FEF3
:1022600048B908BDFFF7C6FBEDE7FFF7C3FBEFE793
:10227000FFF7C0FBF1E7FFF7BDFBF2E7040700241F
:102280000010014008B51748174B03604FF4E133C5
:10229000436000238360C36003610C224261836159
:1022A000C36103624362836208F043FE70B9002198
:1022B0000C4808F0B9FE60B900210A4808F0D9FEC0
:1022C00050B9084808F091FE48B908BDFFF792FBE5
:1022D000EDE7FFF78FFBEFE7FFF78CFBF1E7FFF789
:1022E00089FBF2E798070024001C014070B5BAB0E2
:1022F0000446002135913691379138913991B822B1
:1023000006A8FEF76FFA2368984A934208D0984AC5
:10231000934279D0974A934200F0EA803AB070BD78
:1023200002220023CDE9062306A806F08DFA002834
:1023300061D1914BD3F8E82042F08042C3F8E82005
:10234000D3F8E82002F080420092009AD3F8E0200F
:1023500042F01002C3F8E020D3F8E03003F010039D
:102360000193019B4FF4C0733593022336930025EC
:10237000379538950723399335A9804804F0ECFB4D
:102380007F48804B03605023436040238360C560D7
:102390004FF48063036145618561C56105624562F3
:1023A00002F0C8FF50BB764BE3679C637648774BDF
:1023B00003604F23436000238360C3604FF4806257
:1023C000026143618361C3610362042242620322AA
:1023D0008262C362036302F0ADFF90B96A4BC4F836
:1023E00080309C6300220521522002F025FE5220FD
:1023F00002F058FE92E7FFF7FDFA9AE7FFF7FAFAC4
:10240000D1E7FFF7F7FAE9E701220023CDE9062338
:1024100006A806F019FA002861D1574BD3F8F0202E
:1024200042F01002C3F8F020D3F8F02002F01002BE
:102430000292029AD3F8E02042F00102C3F8E020B1
:10244000D3F8E03003F001030393039B4FF4C06320
:102450003593022336930025379538950723399312
:1024600035A94B4804F078FB4A484B4B03602923BD
:1024700043608560C5604FF4806303614561856199
:10248000C56105620423436203238362C562056359
:1024900002F050FF30BB3F4BC4F880309C633F4894
:1024A0003F4B03602A234360402383600023C360C3
:1024B0004FF48062026143618361C36103624362DE
:1024C00002F038FF88B9354BE3679C630022052191
:1024D000252002F0B1FD252002F0E4FD1EE7FFF704
:1024E00089FA9AE7FFF786FAD5E7FFF783FAEAE772
:1024F00001220023CDE9062306A806F0A5F900284D
:1025000031D11D4BD3F8F02042F08002C3F8F02007
:10251000D3F8F02002F080020492049AD3F8E0206D
:1025200042F01002C3F8E020D3F8E03003F01003CB
:102530000593059B04233593022636960024379491
:10254000389439930D4D35A9284604F005FB08232E
:1025500035933696379438940B23399335A928460A
:1025600004F0FAFADAE6FFF745FACAE70078004025
:1025700000100140001C01400044025800100258A5
:102580009C05002410000240240500244000024065
:102590000000025814060024280002408C06002483
:1025A0005800024008B501221049114809F0B5FD54
:1025B00080B910490E4809F0C7FD70B90E490C48A2
:1025C00009F06AFD60B90A4809F0D8FD58B905F06C
:1025D0007DFA08BDFFF70EFAEBE7FFF70BFAEDE720
:1025E000FFF708FAEFE7FFF705FAF0E780000024AD
:1025F000C0080024E00000246C0000240020704784
:102600000020704708B5034B1B680BB1088898473A
:10261000002008BDA01B002438B50C46074D01461C
:10262000284609F052FD284609F05BFD044B1B6863
:102630000BB120889847002038BD00BFC008002497
:102640009C1B002410B5064C00220649204609F0C8
:102650002EFD0549204609F038FD002010BD00BFC1
:10266000C00800249C1300249C0B002410B5B0B0BB
:102670000446B822002102A8FEF7B4F82268164BDF
:102680009A4201D030B010BD4FF480220023CDE932
:1026900002234FF44013239302A806F0D5F8B8B9EB
:1026A00005F014FA0D4BD3F8D82042F00072C3F8AD
:1026B000D820D3F8D83003F000730193019B002297
:1026C00005214D2002F0B8FC4D2002F0EBFCD9E7CB
:1026D000FFF790F9E4E700BF00000440004402580F
:1026E00008B500F29C41D0F8E00409F05DFD08BD9A
:1026F00008B501EBC10300EB8303D3F86022D0F8E7
:10270000E00409F023FE08BD08B501EBC10300EBAE
:1027100083031A6AD0F8E00409F07BFE08BD08B50F
:10272000D0F8E00409F0BDFD08BD10B50446C1793C
:1027300011B1022909D10121D4F8E00409F092FD78
:10274000D4F8E00409F05CFD10BDFFF753F9012156
:10275000F2E7000010B50446D0F8E00409F085FD6A
:102760002268D2F8003E43F00103C2F8003EE37A4B
:1027700023B1034A136943F00603136110BD00BF80
:1027800000ED00E008B5D0F8E00409F07DFD08BDDB
:1027900008B5D0F8E00409F0ACFD08BD08B5D0F8E4
:1027A000E00409F08FFD08BD08B5D0F8E00409F099
:1027B000B7FD08BD08B5D0F8E00409F0B3FD08BDC9
:1027C0000378012B01D00020704710B5164BC3F8D9
:1027D000E004C0F8C832154A1A6009221A710221B1
:1027E000D97100229A7159729A72DA721A739A73B5
:1027F000DA731A74184604F037FB90B90A4C4FF498
:102800000071204605F01DF980220021204605F0C8
:10281000F2F84FF4BA720121204605F0ECF80020DE
:1028200010BDFFF7E7F8E9E7A41B0024000004400F
:10283000D0F8C83211F0800F08D101F07F0101EB10
:10284000C10103EB810191F85602704701F07F014D
:1028500001EBC10103EB8101887D704708B5D0F819
:10286000C80204F005FD08BD004870478820002418
:102870007047032805D8DFE800F0050402050120B1
:1028800070470320704708B5D0F8C80204F06DFB0C
:10289000FFF7EFFF08BD08B594461A466346D0F827
:1028A000C80204F042FCFFF7E4FF08BD08B5D0F809
:1028B000C80204F080FCFFF7DCFF08BD08B5D0F8C3
:1028C000C80204F003FDFFF7D4FF08BD08B5D0F837
:1028D000C80204F03EFDFFF7CCFF08BD08B5D0F8F4
:1028E000C80204F00FFCFFF7C4FF08BD08B5D0F81C
:1028F000C80204F0C6FCFFF7BCFF08BD08B5D0F85D
:10290000C80204F090FCFFF7B4FF08BD12230B804F
:1029100000487047A000002404230B800048704743
:10292000B4000024002393421ED200B510E00CF145
:10293000370C01F813C000014FEA430C0CF1010CF5
:102940004FF0000E01F80CE00133DBB2934209D2E4
:102950004FEA107CB0F1204FE9D20CF1300C01F8B5
:1029600013C0E8E75DF804FB7047000038B50B4B77
:10297000D3F80008D3F80448D3F80838C01800D1B9
:1029800038BD074D0822A91CFFF7CCFF042205F132
:1029900012012046FFF7C6FFF2E700BF00E0F11F7B
:1029A000B800002408B51A230B80FFF7DFFF0148A9
:1029B00008BD00BFB800002408B50A4628B905497B
:1029C00005480AF03DF9034808BD024902480AF0EB
:1029D00037F9F8E7A8220024C4D1000810B50A4648
:1029E000034C214603480AF02BF9204610BD00BFD6
:1029F000A8220024DCD1000808B50A4628B90549F8
:102A000005480AF01DF9034808BD024902480AF0CA
:102A100017F9F8E7A8220024F0D1000808B50A4603
:102A200028B9054905480AF00BF9034808BD0249D1
:102A300002480AF005F9F8E7A8220024FCD10008B2
:102A4000DFF838D0FFF77EFAFFF714FA0C480D498B
:102A50000D4A002302E0D458C4500433C4188C42F9
:102A6000F9D30A4A0A4C002301E013600432A2425F
:102A7000FBD3FDF7F9FDFFF736F87047000005249A
:102A800000000024A40100245CD30008A401002459
:102A9000C4890024FEE708B54FF0E0231B6901F06C
:102AA000D3FC012800D108BD00F064FAFBE7000068
:102AB000EFF305832BB9064B186828B901221A6079
:102AC00070476FF0050070474FF0FF30704700BF50
:102AD00004290024EFF3058373B90A4B1B68012B0B
:102AE0000DD110B50024084BDC77064B02221A608A
:102AF00001F0A8F9204610BD6FF0050070474FF0B7
:102B0000FF3070470429002400ED00E0F0B587B0E5
:102B100000240594EFF3058474BB68B322B31568F1
:102B2000936903B918235C1E372C49D8546814F0F4
:102B3000010F47D156696EB14FEA960C94682CB1DB
:102B4000D7685B2F02D9176907B1C6B92CB14FF00E
:102B5000FF340EE04FF4807CF0E7D4688CB9146940
:102B600094B14FF0FF3404E01546002418234FF4CD
:102B7000807C012C0AD0ACB1059807B0F0BD0124CF
:102B8000F7E74FF0FF34F4E70024F2E714699268A6
:102B90000292019400930B466246294601F0E2F846
:102BA0000590E9E705AA019200930B461FFA8CF203
:102BB000294601F012F90128DED000230593DBE756
:102BC0000020DAE70020D8E7EFF305835BB94FF088
:102BD000E0234FF08052C3F8042DBFF34F8FBFF3B3
:102BE0006F8F002070476FF00500704708B5EFF356
:102BF000058333B908B9002008BD01F087FA002029
:102C0000FAE76FF00500F7E7F8B110B582B00C46AF
:102C100011F07F4F1CD1EFF305829AB1002201928F
:102C200001AA00F081F8B8B1019BC3B14FF0E023D5
:102C30004FF08052C3F8042DBFF34F8FBFF36F8F57
:102C4000204607E000F026F804E06FF0030070472C
:102C50006FF0030002B010BD6FF00200FAE72046EB
:102C6000F8E77047034B0360034B0B604FF480732E
:102C700013607047A8280024A8240024034B036095
:102C8000034B0B604FF4807313607047082D0024D2
:102C900008290024F8B568B10D46044611F07F47B5
:102CA00011D04FF0500383F31188BFF36F8FBFF340
:102CB0004F8FFEE74FF0500383F31188BFF36F8F00
:102CC000BFF34F8FFEE700F10C0601F009F9206910
:102CD00023682B4323600AE0216832EA010105D111
:102CE00011E0216841F0007101F016FB2846B04266
:102CF0000ED04568036823F07F4213F0806FEBD15C
:102D000021681142F2D013F0807FEAD01743E8E740
:102D1000236823EA0703236001F07CF92068F8BDEB
:102D200008B5FFF7B7FF08BD08B513460A460146C8
:102D3000014801F011FE08BD212D000800F1080333
:102D400043604FF0FF328260C36003610023036081
:102D5000704700230361704743684B609A688A603C
:102D6000516099600861036801330360704730B4B3
:102D70000D68B5F1FF3F11D000F108031C465B68F8
:102D80001A68AA42FAD963684B6099608C606160E6
:102D9000086103680133036030BC70470469F2E7DF
:102DA0000369416882688A60416851605A6882425A
:102DB00006D0002202611A68013A1A60186870474A
:102DC00082685A60F5E7000082B0002301930D4B42
:102DD0001B68B3F1FF3F08D04FF0500383F3118815
:102DE000BFF36F8FBFF34F8FFEE74FF0500383F3B6
:102DF0001188BFF36F8FBFF34F8F019B002BFCD067
:102E000002B07047D400002408480068006880F3CE
:102E100008884FF0000080F3148862B661B6BFF3F3
:102E20004F8FBFF36F8F00DF00BF000008ED00E0A1
:102E3000DFF80C00016841F4700101607047000088
:102E400088ED00E04FF0807340F8043C21F0010170
:102E500040F8081C054B40F80C3C40F8202C6FF063
:102E6000020340F8243C4438704700BFC92D0008D5
:102E7000074B19680868B0E8F04F80F30988BFF382
:102E80006F8F4FF0000080F311887047AFF3008020
:102E9000CC7D00244FF0500383F31188BFF36F8F74
:102EA000BFF34F8F0B4A136801331360012B00D01F
:102EB00070474FF0E023D3F8043D13F0FF0FF7D035
:102EC0004FF0500383F31188BFF36F8FBFF34F8F21
:102ED000FEE700BFD4000024094B1B6843B94FF044
:102EE000500383F31188BFF36F8FBFF34F8FFEE75B
:102EF000013B034A13600BB983F31188704700BF8D
:102F0000D4000024000000000000000000000000C9
:102F1000EFF30980BFF36F8F154B1A681EF0100F87
:102F200008BF20ED108A20E9F04F10602DE909005C
:102F30004FF0500080F31188BFF34F8FBFF36F8FB6
:102F400001F00AF94FF0000080F3118809BC1968FC
:102F50000868B0E8F04F1EF0100F08BFB0EC108A00
:102F600080F30988BFF36F8F704700BFAFF3008015
:102F7000CC7D002408B54FF0500383F31188BFF3D4
:102F80006F8FBFF34F8F00F0B9FF28B14FF0E023F0
:102F90004FF08052C3F8042D002383F3118808BD3D
:102FA0004FF0E022002313619361054B1B68054934
:102FB000A1FB03139B09013B536107231361704776
:102FC00064000024D34D62104FF0E023D3F8002DAD
:102FD0003D4B9A421CD04FF0E023D3F8002D3B4BE1
:102FE0009A421ED030B583B0394B1A78D2B20192D2
:102FF000FF221A701B78DBB28DF803309DF8033086
:1030000003F05003334A1370334B07221A601BE05E
:103010004FF0500383F31188BFF36F8FBFF34F8FCF
:10302000FEE74FF0500383F31188BFF36F8FBFF3B8
:103030004F8FFEE7284A1368013B13609DF8033069
:103040005B00DBB28DF803309DF8033013F0800F86
:10305000F0D1214B1B68032B08D04FF0500383F3B2
:103060001188BFF36F8FBFF34F8FFEE71B021A4A21
:10307000136003F4E0631360019BDBB2144A137026
:103080004FF0E024D4F8203D43F47003C4F8203D11
:10309000D4F8203D43F07043C4F8203DFFF780FF93
:1030A00000250E4B1D60FFF7C3FED4F8343F43F0FC
:1030B0004043C4F8343FFFF7A7FE01F04DF8FFF797
:1030C00083FE284603B030BD71C20F4170C20F416C
:1030D00000E400E0642D0024682D0024D4000024C6
:1030E000EFF305830F2B0FD9114A9B5CDBB2114A1A
:1030F00012789A4208D94FF0500383F31188BFF336
:103100006F8FBFF34F8FFEE74FF0E023D3F80C3DF6
:1031100003F4E063084A1268934208D94FF0500361
:1031200083F31188BFF36F8FBFF34F8FFEE77047B4
:10313000F0E300E0642D0024682D0024124A12F010
:10314000070F1ED0D11D21F00701C1F5A043134484
:103150000A460E480260002141601344083B23F0F8
:1031600007030B48036059601960991A5160136096
:10317000084B1960084B1960084B4FF000421A6069
:1031800070474FF4A043E4E7702D0024847D0024B1
:103190006C2D0024787D0024747D0024707D002433
:1031A000164B1A461B688342FBD3516802EB010C95
:1031B000844509D0416800EB010C634509D00360E8
:1031C000904219D010607047406801445160104629
:1031D000F0E710B40A4C2468A3420BD05B68194492
:1031E000416013681B680360904200D010605DF876
:1031F000044B70470460F7E7704700BF847D0024EC
:103200006C2D002470B5054600F06AFE3B4B1B6830
:103210009BB13B4B1B681D4212D135B1083515F0EF
:10322000070F02D025F007050835D5B1354B1B68CF
:10323000AB421AD3344A14681DE0FFF77FFFE8E77A
:1032400000F0E8FE0026FFF70CFD16F0070F53D044
:103250004FF0500383F31188BFF36F8FBFF34F8F8D
:10326000FEE700F0D7FE0026EDE700F0D3FE0026D3
:10327000E9E722461C466368AB4202D22368002B72
:10328000F7D11E4B1B68A34214D01668083623687A
:10329000136063685B1B102B14D9601910F0070FC3
:1032A0000CD04FF0500383F31188BFF36F8FBFF33F
:1032B0004F8FFEE700F0AEFE0026C4E74360656076
:1032C000FFF76EFF62680F490B689B1A0B600F498E
:1032D00009688B4201D20D490B60094B1B681343EF
:1032E0006360002323600A4A13680133136000F00F
:1032F00091FE002EA9D1A6E7304670BD6C2D0024AA
:10330000707D0024747D0024847D0024787D002459
:103310007C7D0024002834D038B50446A0F108058F
:1033200050F8043C174A1268134208D14FF050037A
:1033300083F31188BFF36F8FBFF34F8FFEE750F811
:10334000081C41B14FF0500383F31188BFF36F8F16
:10335000BFF34F8FFEE723EA020340F8043C00F07E
:10336000BFFD54F8041C084A13680B441360284638
:10337000FFF716FF054A13680133136000F04AFE99
:1033800038BD7047707D0024747D0024807D00244A
:1033900010B50446FFF77EFDA26BE36B9A4204D0A2
:1033A0000024FFF799FD204610BD0124F9E710B570
:1033B0000446FFF76FFDA36B23B90124FFF78CFDD3
:1033C000204610BD0024F9E770B504461546866B0B
:1033D000026C5AB903681BB100200136A66370BDA8
:1033E000806801F041F80023A360F6E76DB94068FA
:1033F000FDF75EF9226C636813446360A268934230
:1034000019D3236863602846E7E7C068FDF750F9E1
:10341000226C5142E3689B1AE3602268934202D215
:10342000A3680B44E360022D01D00020D5E726B14C
:10343000013E0020D1E72846CFE70020CDE7034634
:10344000026C6AB110B50846D9681144D9609C680D
:10345000A14201D31968D960D968FDF729F910BDD7
:10346000704738B50546FFF715FD95F8454064B23D
:1034700001E0013C64B2002C0ADD6B6A43B105F146
:10348000240000F003FF0028F3D000F0D7FFF0E79E
:10349000FF2385F84530FFF71FFDFFF7FBFC95F88C
:1034A000444064B201E0013C64B2002C0ADD2B69A7
:1034B00043B105F1100000F0E9FE0028F3D000F060
:1034C000BDFFF0E7FF2385F84430FFF705FD38BD69
:1034D00038B5E0B10D460446FFF7DCFC2368E26B2B
:1034E000216C01FB0230A0600020A0636360013A00
:1034F00002FB0133E360FF2384F8443084F8453055
:10350000FDB9236963B9FFF7E7FC012038BD4FF02F
:10351000500383F31188BFF36F8FBFF34F8FFEE724
:1035200004F1100000F0B2FE0028ECD04FF0E023D0
:103530004FF08052C3F8042DBFF34F8FBFF36F8F4E
:10354000E1E704F11000FFF7F9FB04F12400FFF7B5
:10355000F5FBD8E738B51D46049C0B4649B92460F5
:10356000E063236401212046FFF7B2FF84F84C504A
:1035700038BD2260F4E740B94FF0500383F311885F
:10358000BFF36F8FBFF34F8FFEE710B584B01C46BB
:1035900083B10B1E18BF0123002A08BF43F00103AB
:1035A0008BB94FF0500383F31188BFF36F8FBFF3D4
:1035B0004F8FFEE74FF0500383F31188BFF36F8FF7
:1035C000BFF34F8FFEE7B1FA81F35B09002A18BF02
:1035D00043F0010343B94FF0500383F31188BFF365
:1035E0006F8FBFF34F8FFEE750230393039B502B46
:1035F00008D04FF0500383F31188BFF36F8FBFF3F0
:103600004F8FFEE7039B012384F8463000949DF81A
:103610001830FFF79FFF204604B010BDF0B585B00D
:10362000019288B10F461D460446B1B1022D20D14A
:10363000E36B012B1DD04FF0500383F31188BFF3D0
:103640006F8FBFF34F8FFEE74FF0500383F3118866
:10365000BFF36F8FBFF34F8FFEE7036C002BE5D0F6
:103660004FF0500383F31188BFF36F8FBFF34F8F79
:10367000FEE700F0E9FE064658B9019B002B48D052
:103680004FF0500383F31188BFF36F8FBFF34F8F59
:10369000FEE700263DE02A4639462046FFF794FE25
:1036A000636A7BB948B14FF0E0234FF08052C3F812
:1036B000042DBFF34F8FBFF36F8FFFF70DFC012079
:1036C00005B0F0BD04F1240000F0E0FD0028F4D0C6
:1036D0004FF0E0234FF08052C3F8042DBFF34F8F1B
:1036E000BFF36F8FE9E7FFF7F7FB0020E8E702A8D9
:1036F00000F056FE012619E0002384F8443021E052
:10370000002384F8453023E02046FFF7AAFE00F0AE
:1037100081FCFFF7BFFBA26BE36B9A42BBD3022D88
:10372000B9D0019B002BDED0002EE0D0FFF7D4FBF8
:1037300000F0D6FBFFF7AEFB94F8442052B2B2F192
:10374000FF3FD9D094F8452052B2B2F1FF3FD7D015
:10375000FFF7C2FB01A902A800F02EFED8B920464F
:10376000FFF716FE0028CFD0019904F1100000F0F9
:1037700059FD2046FFF775FE00F04CFC0028C8D12B
:103780004FF0E0234FF08052C3F8042DBFF34F8F6A
:10379000BFF36F8FBDE72046FFF763FE00F03AFCF2
:1037A00000208DE72DE9F84390B10F4616461C46E0
:1037B0000546B1B1022C20D1EB6B012B1DD04FF08F
:1037C000500383F31188BFF36F8FBFF34F8FFEE772
:1037D0004FF0500383F31188BFF36F8FBFF34F8F08
:1037E000FEE7036C002BE5D04FF0500383F3118804
:1037F000BFF36F8FBFF34F8FFEE7FFF771FCEFF35F
:1038000011894FF0500383F31188BFF36F8FBFF31B
:103810004F8FAA6BEB6B9A4206D3022C04D0002088
:1038200089F31188BDE8F88395F845804FFA88F848
:10383000AB6B224639462846FFF7C6FDB8F1FF3F7D
:1038400006D008F101035BB285F845300120E7E7B7
:103850006B6A0BB90120E3E705F1240000F016FDC7
:1038600018B126B101203060DAE70120D8E7012045
:10387000D6E7F0B585B0019290B10F460446C1B1CC
:1038800000F0E2FD064600BB019B002B5ED04FF02E
:10389000500383F31188BFF36F8FBFF34F8FFEE7A1
:1038A0004FF0500383F31188BFF36F8FBFF34F8F37
:1038B000FEE7036C002BE3D04FF0500383F3118835
:1038C000BFF36F8FBFF34F8FFEE700263EE0394610
:1038D0002046FFF7B4FD013DA563236923B9FFF737
:1038E000FBFA012005B0F0BD04F1100000F0CEFCA1
:1038F0000028F4D04FF0E0234FF08052C3F8042D9D
:10390000BFF34F8FBFF36F8FE9E7FFF7E5FA0020B2
:10391000E8E702A800F044FD012621E0002384F836
:10392000443029E0002384F845302BE02046FFF79F
:1039300098FD00F06FFB09E02046FFF792FD00F0D4
:1039400069FB2046FFF733FD00283FD1FFF7A2FABD
:10395000A56B002DBBD1019B002BD6D0002ED8D05B
:10396000FFF7BAFA00F0BCFAFFF794FA94F8443083
:103970005BB2B3F1FF3FD1D094F845305BB2B3F105
:10398000FF3FCFD0FFF7A8FA01A902A800F014FD6D
:103990000028D1D12046FFF70AFD0028C6D00199A2
:1039A00004F1240000F03EFC2046FFF75AFD00F031
:1039B00031FB0028CAD14FF0E0234FF08052C3F80A
:1039C000042DBFF34F8FBFF36F8FBFE7002089E750
:1039D0000023072B0CD8074A52F833200AB10133D1
:1039E000F7E7044A42F8331002EBC303586070470C
:1039F000704700BF8C7D002470B504460D46164606
:103A0000FFF748FA94F844305BB2B3F1FF3F0DD0B2
:103A100094F845305BB2B3F1FF3F0BD0FFF75CFA8F
:103A2000A36B5BB12046FFF71CFD70BD002384F83B
:103A30004430EDE7002384F84530EFE7324629466D
:103A400004F1240000F006FCECE70000084B1B68C2
:103A50001B6823B9074B4FF0FF321A607047044BC5
:103A60001B68DB68DB685A68024B1A60704700BF4E
:103A7000D07D0024788200242DE9F04780460D4651
:103A800017469946089EDDF824A00A9C9200A521BD
:103A9000206BFCF7A7FE236B6FF040423A4403EB28
:103AA000820727F00707B5B34FF0000CBCF10F0FEA
:103AB0000BD815F80C2004EB0C0383F8342015F810
:103AC0000C3013B10CF1010CF0E7002384F8433003
:103AD000372E00D93726E662E66400252565201DCD
:103AE000FFF737F904F11800FFF733F92461C6F145
:103AF0003806A6616462656584F858504A464146B6
:103B00003846FFF79FF92060BAF1000F01D0CAF8DC
:103B10000040BDE8F087002384F83430D8E7000087
:103B200038B5002407E004EB840293000E481844E3
:103B3000FFF704F90134372CF5D90C4D2846FFF76F
:103B4000FDF80B4C2046FFF7F9F80A48FFF7F6F8A6
:103B50000948FFF7F3F80948FFF7F0F8084B1D6034
:103B6000084B1C6038BD00BFD87D00244C82002467
:103B70006082002484820024B08200249C8200247D
:103B8000D07D0024D47D002410B50446FFF782F9CF
:103B9000224A136801331360214B1B685BB1214B30
:103BA0001B686BB91E4B1B68DA6AE36A9A4207D836
:103BB0001B4B1C6004E01A4B1C601368012B29D0BE
:103BC000194A1368013313606364E06A174B1B687A
:103BD000984201D9154B186000EB8000211D144B51
:103BE00003EB8000FFF7B8F8FFF776F90D4B1B6881
:103BF0007BB10B4B1B68DA6AE36A9A4209D24FF039
:103C0000E0234FF08052C3F8042DBFF34F8FBFF372
:103C10006F8F10BDFFF784FFD2E700BF388200240A
:103C2000CC7D002498820024448200244882002411
:103C3000D87D002410B5044690F8593063B1012BAB
:103C400011D0022B0ED04FF0500383F31188BFF335
:103C50006F8FBFF34F8FFEE7006BFFF75BFB2046D4
:103C6000FFF758FB10BDFFF755FBFBE70F4B1B6839
:103C7000D3B110B5FFF70EF90D4BDB68DC68201DE2
:103C8000FFF78EF80B4A1368013B1360074A13686D
:103C9000013B1360FFF720F92046FFF7CBFF034BF2
:103CA0001B68002BE6D110BD704700BF3C8200248A
:103CB000B08200243882002408B5FFF7D7FF074BF5
:103CC0001B68012BF9D94FF0E0234FF08052C3F865
:103CD000042DBFF34F8FBFF36F8FEEE7D87D002425
:103CE00070B504460D46194B1E68194B1868043010
:103CF000FFF756F8B4F1FF3F14BF00230123002D56
:103D000008BF00236BB93444114B1B685C60A642AA
:103D10000ED9104B18680E4B19680431FFF727F8BD
:103D200070BD0B4B196804310B48FFF715F8F7E726
:103D30000A4B1868064B19680431FFF718F8084B4E
:103D40001B68A342ECD9064B1C60E9E7C48200243F
:103D5000CC7D0024D47D00249C820024D07D0024CE
:103D60007882002430B587B00B9C7CB10C9DB5B136
:103D70005C250495049D5C2D1AD04FF0500383F30D
:103D80001188BFF36F8FBFF34F8FFEE74FF05003E3
:103D900083F31188BFF36F8FBFF34F8FFEE74FF0B0
:103DA000500383F31188BFF36F8FBFF34F8FFEE78C
:103DB000049D0C9D2C63022485F859400024039433
:103DC000029505AC01940A9C0094FFF755FE0C98EF
:103DD000FFF7DAFE059807B030BD2DE9F04385B056
:103DE0000746884614461E469000FFF70BFA00B3BC
:103DF00081465C20FFF706FA0546B0B1C0F8309066
:103E0000E5B1002385F85930039302950D9B01938A
:103E10000C9B00933346224641463846FFF72CFE62
:103E20002846FFF7B1FE012005E04846FFF772FA89
:103E3000E6E74FF0FF3005B0BDE8F0834FF0FF300C
:103E4000F9E7000010B588B000240594069407AA8D
:103E500006A905A8FEF706FF059B0293069B0193A2
:103E600000942346079A18491848FFF77BFF184B20
:103E7000186040B100F0B0FB012806D0B0F1FF3F60
:103E800018D008B010BD0020F6E74FF0500383F3C0
:103E90001188BFF36F8FBFF34F8F0E4B4FF0FF3280
:103EA0001A600D4B01221A600C4B00221A60FFF7BA
:103EB0008BF8E6E74FF0500383F31188BFF36F8F61
:103EC000BFF34F8FFEE700BF0CD20008B93C0008DB
:103ED000748200247882002498820024C482002402
:103EE000024A136801331360704700BF4082002408
:103EF000014B1868704700BFC4820024F8B53A4BE4
:103F00001B68002B69D1394B1D6801351D60C5B98F
:103F1000374B1B681B6843B14FF0500383F3118884
:103F2000BFF36F8FBFF34F8FFEE7314A1168314BFC
:103F3000186810601960304A136801331360FFF786
:103F400085FD2E4B1B68AB423DD900272C4B1B68CF
:103F5000DB6A03EB83039A002A4B9B58012B00D9A1
:103F60000127294B1B68002B3CD001273AE0012791
:103F70001F4B1B681B6843B31D4B1B68DB68DC6869
:103F800063689D4226D3261D3046FEF709FFA36ACB
:103F90001BB104F11800FEF703FFE36A1B4A126825
:103FA000934201D9194A136003EB83039A00314607
:103FB00014481044FEF7D0FEE26A114B1B68DB6A1E
:103FC0009A42D4D2D4E70027D2E70C4B4FF0FF320D
:103FD0001A60BBE7094A1360B8E70D4A136801335A
:103FE000136000273846F8BD40820024C4820024B4
:103FF000D07D0024D47D00247C820024788200249B
:10400000CC7D0024D87D0024C8820024488200246E
:104010008082002438B5354B1B6843B94FF05003FC
:1040200083F31188BFF36F8FBFF34F8FFEE7FEF767
:1040300031FF2E4B1A68013A1A601B68002B4FD1D2
:104040002B4B1B680BB900244BE00024294B1B6849
:104050001BB3284BDB68DC6804F11800FEF7A0FEF8
:10406000251D2846FEF79CFEE06A234B1B689842FC
:1040700001D9214B186000EB800029461F4B03EB50
:104080008000FEF769FEE26A1D4B1B68DB6A9A42FC
:10409000DCD31C4B01221A60D8E70CB1FFF7D6FC29
:1040A000194B1C6884B9174B1C68D4B14FF0E0233E
:1040B0004FF08052C3F8042DBFF34F8FBFF36F8FC3
:1040C00001240EE0013C07D0FFF718FF0028F9D0CB
:1040D0000C4B01221A60F5E70B4B00221A60E2E755
:1040E0000024FEF7F9FE204638BD00BF40820024C0
:1040F000388200248482002448820024D87D002451
:10410000CC7D0024C88200248082002410B5A8B190
:104110000446104B1B6843B14FF0500383F31188E2
:10412000BFF36F8FBFF34F8FFEE7FFF7D9FE00217C
:104130002046FFF7D5FDFFF76DFF48B94FF0E023AC
:104140004FF08052C3F8042DBFF34F8FBFF36F8F32
:1041500010BD00BF4082002408B52D4B1B681BB169
:104160002C4B01221A6008BD2A4B00221A602A4BF0
:104170001B681B6B1A68B2F1A53F03D15A68B2F1F4
:10418000A53F10D0244B186819683431FDF720FC86
:10419000224B1B6803EB83018A0021498A58A2B98C
:1041A00053B1013BF6E79A68B2F1A53FEAD1DB686B
:1041B000B3F1A53FE6D1EBE74FF0500383F311884D
:1041C000BFF36F8FBFF34F8FFEE703EB83008200D7
:1041D0000A4450684068506003EB830C4FEA8C023D
:1041E0000832114488420BD003EB830291000C4A41
:1041F0000A445268D168084A1160084A1360B2E75D
:10420000406862469100064A0A445060ECE700BFED
:1042100040820024C8820024CC7D002448820024EF
:10422000D87D002458B110B50C46094A11681831E0
:10423000FEF79DFD01212046FFF752FD10BD4FF016
:10424000500383F31188BFF36F8FBFF34F8FFEE7E7
:10425000CC7D002438B570B10D4614460A4A116869
:104260001831FEF779FD0CB14FF0FF352146284695
:10427000FFF736FD38BD4FF0500383F31188BFF3CD
:104280006F8FBFF34F8FFEE7CC7D002438B5C36836
:10429000DC6824B304F118052846FEF781FD184BAD
:1042A0001B682BBB251D2846FEF77AFDE06A154BDF
:1042B0001B68984201D9134B186000EB8000294617
:1042C000114B03EB8000FEF747FDE26A0F4B1B68C2
:1042D000DB6A9A4211D901200D4B186038BD4FF0AE
:1042E000500383F31188BFF36F8FBFF34F8FFEE747
:1042F00029460848FEF730FDE7E70020EEE700BF5B
:104300004082002448820024D87D0024CC7D0024F3
:10431000C88200248482002438B51C4B1B6843B932
:104320004FF0500383F31188BFF36F8FBFF34F8FAC
:10433000FEE741F000410160C468F4B1FEF730FDD2
:10434000251D2846FEF72CFDE06A114B1B6898429C
:1043500001D90F4B186000EB800029460D4B03EB91
:104360008000FEF7F9FCE26A0B4B1B68DB6A9A429D
:1043700002D90A4B01221A6038BD4FF0500383F373
:104380001188BFF36F8FBFF34F8FFEE74082002489
:1043900048820024D87D0024CC7D0024C8820024DB
:1043A000034B1B680360034B1B684360704700BFEF
:1043B0007C820024C4820024F8B5C8B10C460546AE
:1043C000F9B1FEF767FD1B4B19686B68C81A2268C4
:1043D000B2F1FF3F26D0184E36682F68B74201D0A1
:1043E0008B4224D9824215D80023236001241AE08D
:1043F0004FF0500383F31188BFF36F8FBFF34F8FDC
:10440000FEE74FF0500383F31188BFF36F8FBFF3C4
:104410004F8FFEE75B1A134423602846FFF7C0FF67
:10442000002400E00024FEF757FD2046F8BD0124DB
:10443000F9E700BFC48200247C820024014B0122E2
:104440001A607047C8820024054B1B6833B1054BC6
:104450001B680BB100207047022070470120704795
:10446000988200244082002400283BD038B50446BE
:104470001E4B1B68834208D04FF0500383F3118812
:10448000BFF36F8FBFF34F8FFEE7036D43B94FF05C
:10449000500383F31188BFF36F8FBFF34F8FFEE795
:1044A000013B0365C16AC26C91421DD00BB1002073
:1044B00038BD051D2846FEF773FCE06CE062C0F1D4
:1044C0003803A3610A4B1B68984201D9084B186056
:1044D00000EB80002946074B03EB8000FEF73CFC15
:1044E0000120E5E7002070470020E1E7CC7D0024B3
:1044F00048820024D87D0024064B1A6813682BB923
:104500000123036023B9D368186870470023F8E7D4
:1045100000207047CC82002408B5416000619142C0
:104520000CD8D21A83699A4201D3012008BD011D1B
:104530000B4B1868FEF71BFC0020F7E79A422CBFD4
:1045400000220122994238BF00220AB10120EDE782
:10455000011D044B1868FEF70AFC0020E6E700BFC7
:10456000D0820024CC82002430B583B0FEF792FCC8
:10457000114B1B681BB1FEF7AFFC03B030BD0F4DF4
:104580002846FEF7DBFB0E4C2046FEF7D7FB0D4B13
:104590001D600D4B1C60002300930C4B0C4A102136
:1045A0000A20FEF7E8FF044B18600028E3D0094911
:1045B000FFF70EFADFE700BFF083002474830024C6
:1045C00088830024CC820024D0820024A08300248D
:1045D000D482002414D2000810B588B0FFF7C4FFBD
:1045E000124B1B68CBB100240594069407AA06A9B8
:1045F00005A8FEF743FB059B0293069B019302234C
:1046000000932346079A0A490A48FFF7ABFB0A4B77
:10461000186010B1012008B010BD4FF0500383F3B3
:104620001188BFF36F8FBFF34F8FFEE7F083002435
:104630001CD2000841490008F4830024B8B19C460C
:1046400003461848006858B300B585B00091019240
:10465000029305291CDCFFF7F7FE022810D0002387
:104660001A4669460F480068FEF7D8FF15E04FF07C
:10467000500383F31188BFF36F8FBFF34F8FFEE7B3
:104680000023069A694607480068FEF7C7FF04E062
:10469000002362466946FFF785F805B05DF804FB24
:1046A00000207047F083002470B582B01B4B1B685C
:1046B0001A6862B3DB681E68DC68251D2846FEF7B1
:1046C0006FFB236A2046984794F8283013F0040FB4
:1046D000ECD0A36933449E4207D26360246129462B
:1046E0000E4B1868FEF743FBE0E7002100910B46F4
:1046F00032462046FFF7A2FF0028D7D14FF05003E3
:1047000083F31188BFF36F8FBFF34F8FFEE7044A27
:10471000106802490860136002B070BDCC820024AA
:10472000D082002438B50546FFF7E2FB0446074B6C
:104730001B68834205D800232B60044B1C60204675
:1047400038BDFFF7B1FF01232B60F6E79C830024FF
:1047500070B582B006460D4617490968C968CC682D
:10476000201DFEF71DFB94F828C01CF0040F08D193
:104770002CF0010C84F828C0236A2046984702B028
:1047800070BDA16933462A4631442046FFF7C4FE76
:104790000028F1D0002100910B4632462046FFF759
:1047A0004DFF0028E8D14FF0500383F31188BFF389
:1047B0006F8FBFF34F8FFEE7CC82002470B582B0BD
:1047C00006460C46FFF78CFB01A8FFF7ABFF019BE9
:1047D0003BBB0546B04228BF002C19D024B1134A78
:1047E00012681268DAB901242246711B104B18684E
:1047F000FFF702F9FFF70EFCA8B94FF0E0234FF0E6
:104800008052C3F8042DBFF34F8FBFF36F8F0AE0C0
:10481000FFF700FC29463046FFF79AFF03E01C46ED
:10482000E2E7FFF7F7FB02B070BD00BFD0820024C3
:10483000F083002410B588B002E0049B002B0FDA4F
:10484000002204A93D4B1868FFF713F8002873D025
:10485000049B002BF1DA07990698059B9847ECE733
:10486000069C636913B1201DFEF79AFA03A8FFF7AF
:1048700059FF049B092BE3D8DFE803F00505053059
:1048800037500505303794F8283043F0010384F899
:104890002830059BA169024619442046FFF73CFEDB
:1048A0000028CDD0236A2046984794F8283013F08A
:1048B000040FC5D0A269002100910B46059802445F
:1048C0002046FFF7BBFE0028BAD14FF0500383F318
:1048D0001188BFF36F8FBFF34F8FFEE794F8283036
:1048E00023F0010384F82830AAE794F8283043F035
:1048F000010384F828300599A16131B103460246CD
:1049000001442046FFF708FE9AE74FF0500383F377
:104910001188BFF36F8FBFF34F8FFEE794F82830F5
:1049200013F0020F04D023F0010384F8283087E746
:104930002046FEF7EFFC83E708B010BDF0830024AB
:1049400000B583B001A8FFF7D7FD0199FFF736FF47
:10495000FFF770FFF6E7000010B584B014461A4662
:104960006FF00103009301900291039400236946C4
:1049700002480068FEF716FF04B010BDF083002463
:104980000369C268934204D88068801A0344581EA1
:1049900070479B1A581E70472DE9F8430446884615
:1049A0001646C5688768A7EB0509914509D940688F
:1049B0002844FBF77DFEBFF35F8F3544E560BDE81B
:1049C000F88340684A462844FBF772FEED1B3544E5
:1049D0002A4608EB09016068FBF76AFEBFF35F8FA8
:1049E000E560ECE72DE9F843064688461746C568BA
:1049F0004FF000091AE0641B621EB3685C1B94420E
:104A000028BF1446BC4228BF3C4670682246414637
:104A10002844FBF74DFEA144A0443F1B2544B36846
:104A2000AB420BD0BFF35F8FF5604FB13469A54245
:104A3000E1D3B268641B1444621EDEE70025F1E78F
:104A40004846BDE8F883000010B5154CA8220021A7
:104A50002046FBF7C7FE032323616361114AA2616D
:104A6000114BE3614FF4806323620023A36263620E
:104A7000E36222660D4A62661022A2662367E3663D
:104A80006367BFF35F8F06E0C3F10F020849895CDB
:104A9000034AD15401330F2BF6D9BFF35F8F10BDFA
:104AA000F883002424D20008B0840024A0840024C9
:104AB00030D20008F8B50F461646184B451C05EBDA
:104AC000450503EBC50500EB400003EBC000C46ADD
:104AD000012C11D0022C1CD014B100242046F8BDAA
:104AE0002846FFF74DFF8642F8D832463946284619
:104AF000FFF752FF3446F1E72846FFF741FF3446FF
:104B0000864228BF0446224639462846FFF744FF1E
:104B1000E4E72846FFF766FF0446DFE7F883002452
:104B2000F8B504460D461646094B1B786BB1EFF3FA
:104B300011874FF0200181F3118832462946204623
:104B4000FFF7B8FF87F31188F8BDFFF77DFFEEE7A9
:104B5000F883002410B504468268531C40688342E1
:104B600005D820688154A360E3680133E360A2683C
:104B700063689A4200D010BD21682069FFF7D0FF1A
:104B8000A368984203D04FF0FF33E360F3E70023BC
:104B9000A360F0E72DE9F84F81460F4615461E4603
:104BA000DDF828A00B9A0B464FF0010803E0B3FB99
:104BB000F5F308F10108AB42F9D2B04500D2B04696
:104BC00012F0010B15D1BAF1000F12D012F0020F42
:104BD00002D0A6B1202400E02024C24509D90AF160
:104BE000FF3A21464846FFF7B5FFD9F80C30002BB5
:104BF000F3DAD9F80C30002B25DB012404E0302453
:104C0000EBE7013E05FB04F4012EFAD8B7FBF4F301
:104C10009D42F7D900E01C46B7FBF4F304FB137781
:104C2000104AD15C4846FFF795FFD9F80C30002BAD
:104C300003DBB4FBF5F3AC42EDD2BBF1000F02D0C5
:104C4000BAF1000F01D1BDE8F88FC245FBD90AF1D6
:104C5000FF3A20214846FFF77DFFD9F80C30002BA2
:104C6000F3DAF0E744D200082DE9F04782B00646B7
:104C70008846154699460A9FDDF82CA081EAE17C1A
:104C8000ACEBE17C012402E09CFBF5FC01346545C2
:104C9000FADD4C4500D24C4637B1B8F1000F02DBCB
:104CA0001AF0040F00D0013F1AF0020F02D0B9F140
:104CB000000F03D01AF0010F00D1AFB9F368002B39
:104CC0000FDBB8F1000F1ADB1AF0040F1ED1F368E6
:104CD000002B06DB0AF00303022B1CD0F368002B29
:104CE00029DA02B0BDE8F087A742E7D9013F2021C9
:104CF0003046FFF72FFFF368002BF5DADEE7C8F147
:104D000000082D213046FFF725FFE0E72B21304634
:104D1000FFF720FFDBE7B9F1000FDFD1002FDDD077
:104D2000A742DBD9013F30213046FFF713FFF3687C
:104D3000002BF5DAD2E7CDF804A000974B462A46BF
:104D400041463046FFF726FFCBE70000F0B599B0AB
:104D500007460C46164603AB1393402314930023D7
:104D600015931790169388E00020012211E040F07F
:104D7000010001340CE040F00200013408E040F092
:104D80000400013404E040F00800013400E0002297
:104D900012B32378233B0D2BF9D801A151F823F04E
:104DA000874D00088F4D00088F4D00088F4D00087B
:104DB0008F4D00088F4D00088F4D00088F4D000863
:104DC0007F4D00088F4D00086F4D00088F4D000883
:104DD0008F4D0008774D0008002506E0013405EBF3
:104DE000850503EB4503A3F130052378A3F13002D9
:104DF000D2B2092AF2D92E2B02D00023227810E059
:104E0000013400232278A2F13001C9B20929F5D872
:104E1000013403EB830302EB4303303BF2E714F866
:104E2000012F682A18BF6C2AF9D0252A6DD020D30B
:104E3000782A1ED8582A1CD3583A202A19D8DFE8D5
:104E400002F03D18181818181818181818112718F3
:104E50001818181818181818181857181848183249
:104E600018183D0033681A1D3260197813A8FFF72F
:104E700071FE0134169B002B4CDB14F8011B00293A
:104E800048D025293FF470AF13A8FFF763FEF1E780
:104E90003268111D31601168019000950A2213A833
:104EA000FFF7E2FEE5E73268111D316011680190FD
:104EB00000950A2213A8FFF76DFEDAE73268111D8C
:104EC0003160116801900095102213A8FFF762FE6F
:104ED000CFE733681A1D32601D6815F8011B0029E1
:104EE000C7D013A8FFF736FE169B002BF5DAC0E7F4
:104EF00033681A1D32601968002301930823009358
:104F0000102213A8FFF746FEB3E7252113A8FFF7E9
:104F100021FEAEE7169B002B05DD159A32B9159AD6
:104F2000169B13441693169819B0F0BD03A9384682
:104F3000FFF7F6FDF3E700BF0EB400B582B003AB98
:104F400053F8041B019301AAFFF700FF02B05DF8BC
:104F500004EB03B07047000010B5032000F05AF8CE
:104F600003F0B2F80F498B69C3F303230E4AD35CF5
:104F700003F01F03D8408B6903F00F03D35C03F0E9
:104F80001F0320FA03F3094A1360094B18600F202E
:104F9000FCF77EFE10B10124204610BD0446FCF74C
:104FA0005DFEF9E700440258B4D10008680000240F
:104FB00064000024034B1B78034A11680B44136000
:104FC000704700BFD8000024B0880024014B186847
:104FD000704700BFB088002438B50446FFF7F6FFDD
:104FE0000546B4F1FF3F02D0044B1B781C44FFF789
:104FF000EDFF401BA042FAD338BD00BFD80000240B
:10500000034A536823EA00030B435360704700BF11
:10501000000400580649CB6823F4E0631B041B0C12
:10502000000200F4E0600343024A1A43CA6070477A
:1050300000ED00E00000FA0500B5174BDB68C3F394
:105040000223C3F1070CBCF1040F28BF4FF0040C7E
:1050500003F1040EBEF1060F14D9033B4FF0FF3EDF
:105060000EFA0CFC21EA0C0199400EFA03F322EA35
:1050700003031943002807DB0901C9B2074B195480
:105080005DF804FB0023E9E700F00F000901C9B255
:10509000034B1954F4E700BF00ED00E000E400E02A
:1050A00014ED00E0002807DB00F01F024009012397
:1050B0009340024A42F82030704700BF00E100E010
:1050C00003682749274A934218BF8B422FD01832D2
:1050D00093422CD01832934229D01832934226D0D2
:1050E0001832934223D01832934220D01832934280
:1050F0001DD002F55672934219D01832934216D041
:105100001832934213D01832934210D0183293427F
:105110000DD0183293420AD01832934207D0183279
:10512000934204D023F0FF038365806D704710B471
:10513000D9B210390C4AA2FB0142C2F302120B4C45
:10514000A25CC2655F2907D9094A1A400432826508
:10515000806D5DF8044B7047054A1A408265F7E799
:105160001000024028000240ABAAAAAA54D20008AC
:1051700000FCFFFF83699BB9836A012B0AD0022BD5
:1051800002D00BB100207047C36A13F0807F2AD190
:1051900000207047C36AB3F1C07F26D0002070475B
:1051A000B3F5005F0AD0836A022B26D9032B26D1E0
:1051B000C36A13F0807F24D100207047836A032BD9
:1051C00003D8DFE803F01404140A00207047C36A10
:1051D00013F0807F0DD100207047C36AB3F1C07F08
:1051E00009D000207047012070470120704701203E
:1051F0007047012070470120704701207047002050
:10520000704701207047000003682249224A9342F8
:1052100018BF8B4228D01432934225D014329342C7
:1052200022D0143293421FD0143293421CD0143235
:10523000934219D01432934216D0DAB2103A174979
:10524000A1FB0212120916491944A8291FD9154BAE
:1052500013449B000366144B436602F01F020123B4
:1052600003FA02F282667047DBB2083B0F4AA2FBE8
:1052700003230F4A02EB1312920002660D4A4266A4
:10528000C3F30413012202FA03F383667047083262
:10529000DDE700BF085402581C540258ABAAAAAA62
:1052A000F0FBFDBF0082001080080240CDCCCCCCCA
:1052B000009600168058025801794A1E072A2CD8F9
:1052C00030B40368154D164CA34218BFAB4218D03A
:1052D0001434A34215D01434A34212D01434A34280
:1052E0000FD01434A3420CD01434A34209D0143488
:1052F000A34206D00B4B0B449B00C3660A4B0367CB
:1053000005E00A4B0B449B00C366094B036701236E
:1053100003FA02F2426730BC7047704708540258E3
:105320001C5402583F820010400902403F9600166C
:105330004059025870B50446FFF748FE002C00F0B3
:10534000B381054623685349534A934218BF8B42A1
:105350000CBF0122002250D030318B424DD0183189
:105360008B424AD018318B4247D018318B4244D0FF
:1053700018318B4241D018318B423ED001F5567125
:105380008B423AD018318B4237D018318B4234D00F
:1053900018318B4231D018318B422ED018318B42CC
:1053A0002BD018318B4228D018318B4225D03B4965
:1053B0003B4A934218BF8B4200F02E81394A9342F8
:1053C00000F02A811432934200F026811432934275
:1053D00000F022811432934200F01E811432934275
:1053E00000F01A811432934200F016814023636565
:1053F000032384F8353001204AE0022184F8351077
:10540000002184F834107ABB274A93422CD01832FA
:10541000934229D01832934226D01832934223D097
:105420001832934220D0183293421DD002F55672A2
:10543000934219D01832934216D01832934213D0A7
:105440001832934210D0183293420DD01832934242
:105450000AD01832934207D01832934204D01A6807
:1054600022F001021A6003E01A6822F001021A60B9
:1054700023681A6812F0010F18D0FFF7A7FD431B2D
:10548000052BF5D920236365032384F835300120EB
:1054900070BD00BF100002402800024008540258AE
:1054A0001C54025830540258400002401A687F4889
:1054B0001040A168E2680A4321690A4361690A430E
:1054C000A1690A43E1690A43216A0A430243616A06
:1054D000042900F096806168A1F12905A1F13F003F
:1054E000032888BF052D0AD9A1F14700012806D954
:1054F000A1F14F00032802D97439032901D842F4DD
:1055000080121A602668756925F00705636A1D43D5
:10551000042B08D1A36A1D43E36A23B12046FFF799
:1055200029FE002872D175612046FFF7C9FDE36DA1
:1055300003F01F023F239340836023685C495D4A68
:10554000934218BF8B4242D0183293423FD0183258
:1055500093423CD01832934239D01832934236D01D
:105560001832934233D01832934230D002F556723B
:1055700093422CD01832934229D01832934226D02D
:105580001832934223D01832934220D018329342DB
:105590001DD0183293421AD01832934217D0464A7F
:1055A000934214D01432934211D0143293420ED04D
:1055B000143293420BD01432934208D014329342E7
:1055C00005D01432934202D01432934213D12046B4
:1055D000FFF71AFEA368802B59D0236E22791A6038
:1055E000636EA26E5A606368013B072B52D9002399
:1055F000E3662367636700206065012384F8353024
:1056000046E7E16A206B01430A4364E74023636590
:10561000012084F835003BE7022284F8352000227F
:1056200084F834201A6825491140A268402A2CD0F9
:10563000802A27D00022E06842EAD002206942EAAC
:10564000D002606942EAD002A06942EAD002E06971
:1056500042EAD002206A42EA10120A431A60226823
:10566000174B1344174AA2FB03231B099B00E36556
:105670002046FFF725FDE26D02F01F0101228A405E
:1056800042605AE74FF48042D5E71022D3E7002367
:105690006360A2E72046FFF70FFEE36E00221A6068
:1056A000236F626F5A60A6E70120F1E63F8010FE8B
:1056B0001000024028000240085402580F00FEFF6C
:1056C000F8ABFDA7CDCCCCCC70B50446FFF77EFC83
:1056D000002C00F09181054694F83530DBB2022BA6
:1056E00006D080236365002384F83430012070BD28
:1056F00023688C498C4A934218BF8B4230D01832B1
:1057000093422DD0183293422AD01832934227D098
:105710001832934224D01832934221D01832934247
:105720001ED002F5567293421AD01832934217D007
:105730001832934214D01832934211D01832934247
:105740000ED0183293420BD01832934208D0183240
:10575000934205D01A6822F00E021A60266809E00A
:105760001A6822F01E021A602268536923F080032F
:105770005361266823686B496B4A934218BF8B427A
:1057800042D0183293423FD0183293423CD0183264
:10579000934239D01832934236D01832934233D0E4
:1057A0001832934230D002F5567293422CD0183200
:1057B000934229D01832934226D01832934223D0F4
:1057C0001832934220D0183293421DD0183293429F
:1057D0001AD01832934217D0544A934214D014323C
:1057E000934211D0143293420ED0143293420BD014
:1057F0001432934208D01432934205D014329342AB
:1058000002D01432934204D1226E136823F48073C1
:10581000136023684349444A934218BF8B422FD0F8
:10582000183293422CD01832934229D01832934226
:1058300026D01832934223D01832934220D0183207
:1058400093421DD002F55672934219D018329342FA
:1058500016D01832934213D01832934210D0183217
:1058600093420DD0183293420AD01832934207D097
:105870001832934204D01A6822F001021A6003E041
:105880001A6822F001021A60336813F0010F0ED07B
:10589000FFF79CFB431B052BF6D9202363650323ED
:1058A00084F83530002384F8343001201FE7236862
:1058B0001C491D4A934218BF8B4239D0183293427B
:1058C00036D01832934233D01832934230D0183247
:1058D00093422DD0183293422AD01832934227D0C7
:1058E00002F55672934223D01832934220D01832D8
:1058F00093421DD0183293421AD01832934217D0D7
:105900001832934214D01832934211D01832934275
:105910000ED0A16DE36D03F01F02012393404B6095
:105920000DE000BF10000240280002400854025859
:10593000A16DE36D03F01F023F2393408B6023684A
:105940002E492F4A934218BF8B4242D018329342BD
:105950003FD0183293423CD01832934239D018329B
:10596000934236D01832934233D01832934230D01B
:1059700002F5567293422CD01832934229D0183235
:10598000934226D01832934223D01832934220D02B
:10599000183293421DD0183293421AD018329342D3
:1059A00017D0184A934214D01432934211D01432B3
:1059B00093420ED0143293420BD01432934208D04B
:1059C0001432934205D01432934202D014329342DF
:1059D0000BD1636EA26E5A60E36E33B11A6822F483
:1059E00080721A60236F626F5A60012384F8353029
:1059F000002084F834007AE6012078E610000240A6
:105A00002800024008540258002800F0298108B5F7
:105A1000024690F83530DBB2022B03D08023436579
:105A2000012008BD0368904890498B4218BF83420B
:105A30000CBF0121002166D03030834263D0183082
:105A4000834260D0183083425DD0183083425AD0F0
:105A50001830834257D01830834254D000F5567026
:105A6000834250D0183083424DD0183083424AD000
:105A70001830834247D01830834244D018308342D4
:105A800041D0183083423ED0183083423BD0196851
:105A900021F00E0119601368A0F5956073498B42DF
:105AA00018BF83426AD072498B4267D018318B424B
:105AB00064D018318B4261D018318B425ED01831DE
:105AC0008B425BD018318B4258D001F556718B4216
:105AD00054D018318B4251D018318B424ED01831EE
